{
  "contractName": "TicTacToe",
  "abi": [
    {
      "constant": true,
      "inputs": [],
      "name": "gameResult",
      "outputs": [
        {
          "name": "",
          "type": "string"
        }
      ],
      "payable": false,
      "stateMutability": "view",
      "type": "function",
      "signature": "0x7152f800"
    },
    {
      "constant": true,
      "inputs": [],
      "name": "activePlayer",
      "outputs": [
        {
          "name": "",
          "type": "address"
        }
      ],
      "payable": false,
      "stateMutability": "view",
      "type": "function",
      "signature": "0x7fdffd23"
    },
    {
      "constant": true,
      "inputs": [],
      "name": "hostPlayer",
      "outputs": [
        {
          "name": "",
          "type": "address"
        }
      ],
      "payable": false,
      "stateMutability": "view",
      "type": "function",
      "signature": "0x8039ed53"
    },
    {
      "constant": true,
      "inputs": [],
      "name": "victorPlayer",
      "outputs": [
        {
          "name": "",
          "type": "address"
        }
      ],
      "payable": false,
      "stateMutability": "view",
      "type": "function",
      "signature": "0xb6ff6a52"
    },
    {
      "constant": true,
      "inputs": [],
      "name": "gameCost",
      "outputs": [
        {
          "name": "",
          "type": "uint256"
        }
      ],
      "payable": false,
      "stateMutability": "view",
      "type": "function",
      "signature": "0xcab896dc"
    },
    {
      "constant": true,
      "inputs": [],
      "name": "guestPlayer",
      "outputs": [
        {
          "name": "",
          "type": "address"
        }
      ],
      "payable": false,
      "stateMutability": "view",
      "type": "function",
      "signature": "0xdfeada94"
    },
    {
      "inputs": [],
      "payable": false,
      "stateMutability": "nonpayable",
      "type": "constructor",
      "signature": "constructor"
    },
    {
      "anonymous": false,
      "inputs": [
        {
          "indexed": false,
          "name": "creatorAddr",
          "type": "address"
        }
      ],
      "name": "GameCreated",
      "type": "event",
      "signature": "0x4f0d1d413a983b9df8ab6ab954635b186a1e9a09ee6dc1b43263ddbf48412267"
    },
    {
      "anonymous": false,
      "inputs": [
        {
          "indexed": false,
          "name": "playerAddr",
          "type": "address"
        }
      ],
      "name": "PlayerJoined",
      "type": "event",
      "signature": "0x31e760aa525306aba638a784082a013b6a1cc0a9a1789f3f22281c0453b10b1f"
    },
    {
      "anonymous": false,
      "inputs": [
        {
          "indexed": false,
          "name": "activePlayerAddr",
          "type": "address"
        }
      ],
      "name": "ActivePlayer",
      "type": "event",
      "signature": "0x95975a5cac9ad4b5953c1419a5f954acbb5ca210ae91a6f3e365cdd108e81740"
    },
    {
      "anonymous": false,
      "inputs": [
        {
          "indexed": false,
          "name": "gameResult",
          "type": "string"
        },
        {
          "indexed": false,
          "name": "victor",
          "type": "address"
        }
      ],
      "name": "GameFinished",
      "type": "event",
      "signature": "0x8faeeac76a6e18b7d45e0ec2ae51d949cc784f877b0c55bbc21157f141d61cc8"
    },
    {
      "anonymous": false,
      "inputs": [
        {
          "indexed": false,
          "name": "receiver",
          "type": "address"
        },
        {
          "indexed": false,
          "name": "amount",
          "type": "uint256"
        }
      ],
      "name": "VictoryAward",
      "type": "event",
      "signature": "0x6ae495f483891de86c9e2a648b5510f7db2f2dfc77617fedffb8de30765735cb"
    },
    {
      "constant": true,
      "inputs": [],
      "name": "getWholeBoard",
      "outputs": [
        {
          "name": "",
          "type": "string[3][3]"
        }
      ],
      "payable": false,
      "stateMutability": "view",
      "type": "function",
      "signature": "0xd59d31ac"
    },
    {
      "constant": false,
      "inputs": [],
      "name": "createGame",
      "outputs": [],
      "payable": true,
      "stateMutability": "payable",
      "type": "function",
      "signature": "0x7255d729"
    },
    {
      "constant": false,
      "inputs": [],
      "name": "joinGame",
      "outputs": [],
      "payable": true,
      "stateMutability": "payable",
      "type": "function",
      "signature": "0xd4f77b1c"
    },
    {
      "constant": false,
      "inputs": [],
      "name": "restartGame",
      "outputs": [],
      "payable": true,
      "stateMutability": "payable",
      "type": "function",
      "signature": "0x8d25af04"
    },
    {
      "constant": true,
      "inputs": [],
      "name": "getBonuspool",
      "outputs": [
        {
          "name": "",
          "type": "uint256"
        }
      ],
      "payable": false,
      "stateMutability": "view",
      "type": "function",
      "signature": "0x6cc1e88e"
    },
    {
      "constant": false,
      "inputs": [
        {
          "name": "row",
          "type": "uint8"
        },
        {
          "name": "column",
          "type": "uint8"
        }
      ],
      "name": "setChess",
      "outputs": [],
      "payable": false,
      "stateMutability": "nonpayable",
      "type": "function",
      "signature": "0x5aff77a0"
    }
  ],
  "bytecode": "0x608060405260038060166101000a81548160ff021916908360ff16021790555034801561002b57600080fd5b506000600360146101000a81548160ff021916908315150217905550613612806100566000396000f3fe6080604052600436106100ba576000357c0100000000000000000000000000000000000000000000000000000000900463ffffffff1680635aff77a0146100bf5780636cc1e88e146100e85780637152f800146101135780637255d7291461013e5780637fdffd23146101485780638039ed53146101735780638d25af041461019e578063b6ff6a52146101a8578063cab896dc146101d3578063d4f77b1c146101fe578063d59d31ac14610208578063dfeada9414610233575b600080fd5b3480156100cb57600080fd5b506100e660048036036100e19190810190612ca3565b61025e565b005b3480156100f457600080fd5b506100fd610828565b60405161010a9190613487565b60405180910390f35b34801561011f57600080fd5b50610128610847565b60405161013591906132b5565b60405180910390f35b6101466108e5565b005b34801561015457600080fd5b5061015d610a90565b60405161016a919061324f565b60405180910390f35b34801561017f57600080fd5b50610188610ab6565b604051610195919061324f565b60405180910390f35b6101a6610adb565b005b3480156101b457600080fd5b506101bd610e40565b6040516101ca9190613219565b60405180910390f35b3480156101df57600080fd5b506101e8610e66565b6040516101f59190613487565b60405180910390f35b610206610e72565b005b34801561021457600080fd5b5061021d611374565b60405161022a9190613293565b60405180910390f35b34801561023f57600080fd5b50610248611489565b604051610255919061324f565b60405180910390f35b600360149054906101000a900460ff1615156102af576040517f08c379a00000000000000000000000000000000000000000000000000000000081526004016102a690613467565b60405180910390fd5b600260009054906101000a900473ffffffffffffffffffffffffffffffffffffffff1673ffffffffffffffffffffffffffffffffffffffff163373ffffffffffffffffffffffffffffffffffffffff16141515610341576040517f08c379a000000000000000000000000000000000000000000000000000000000815260040161033890613307565b60405180910390fd5b60038260ff16108015610357575060038160ff16105b1515610398576040517f08c379a000000000000000000000000000000000000000000000000000000000815260040161038f906133c7565b60405180910390fd5b6040516020018060000190506040516020818303038152906040528051906020012060048360ff166003811015156103cc57fe5b600302018260ff166003811015156103e057fe5b01604051602001808280546001816001161561010002031660029004801561043f5780601f1061041d57610100808354040283529182019161043f565b820191906000526020600020905b81548152906001019060200180831161042b575b50509150506040516020818303038152906040528051906020012014151561049c576040517f08c379a000000000000000000000000000000000000000000000000000000000815260040161049390613387565b60405180910390fd5b6000809054906101000a900473ffffffffffffffffffffffffffffffffffffffff1673ffffffffffffffffffffffffffffffffffffffff163373ffffffffffffffffffffffffffffffffffffffff1614156105f7576040805190810160405280600181526020017f4f0000000000000000000000000000000000000000000000000000000000000081525060048360ff1660038110151561053957fe5b600302018260ff1660038110151561054d57fe5b019080519060200190610561929190612ae5565b50600e60008060009054906101000a900473ffffffffffffffffffffffffffffffffffffffff1673ffffffffffffffffffffffffffffffffffffffff1673ffffffffffffffffffffffffffffffffffffffff168152602001908152602001600020600081819054906101000a900460ff168092919060010191906101000a81548160ff021916908360ff160217905550506106fa565b6040805190810160405280600181526020017f580000000000000000000000000000000000000000000000000000000000000081525060048360ff1660038110151561063f57fe5b600302018260ff1660038110151561065357fe5b019080519060200190610667929190612ae5565b50600e6000600160009054906101000a900473ffffffffffffffffffffffffffffffffffffffff1673ffffffffffffffffffffffffffffffffffffffff1673ffffffffffffffffffffffffffffffffffffffff168152602001908152602001600020600081819054906101000a900460ff168092919060010191906101000a81548160ff021916908360ff160217905550505b60016002600360169054906101000a900460ff16020360ff16600e6000600160009054906101000a900473ffffffffffffffffffffffffffffffffffffffff1673ffffffffffffffffffffffffffffffffffffffff1673ffffffffffffffffffffffffffffffffffffffff16815260200190815260200160002060009054906101000a900460ff16600e60008060009054906101000a900473ffffffffffffffffffffffffffffffffffffffff1673ffffffffffffffffffffffffffffffffffffffff1673ffffffffffffffffffffffffffffffffffffffff16815260200190815260200160002060009054906101000a900460ff160160ff161015156108065761080582826114af565b5b600360149054906101000a900460ff1615610824576108236123eb565b5b5050565b60003073ffffffffffffffffffffffffffffffffffffffff1631905090565b600f8054600181600116156101000203166002900480601f0160208091040260200160405190810160405280929190818152602001828054600181600116156101000203166002900480156108dd5780601f106108b2576101008083540402835291602001916108dd565b820191906000526020600020905b8154815290600101906020018083116108c057829003601f168201915b505050505081565b67016345785d8a000034141515610931576040517f08c379a0000000000000000000000000000000000000000000000000000000008152600401610928906133a7565b60405180910390fd5b336000806101000a81548173ffffffffffffffffffffffffffffffffffffffff021916908373ffffffffffffffffffffffffffffffffffffffff1602179055506001600360156101000a81548160ff0219169083151502179055506040805190810160405280600181526020017f4f00000000000000000000000000000000000000000000000000000000000000815250600d60008060009054906101000a900473ffffffffffffffffffffffffffffffffffffffff1673ffffffffffffffffffffffffffffffffffffffff1673ffffffffffffffffffffffffffffffffffffffff1681526020019081526020016000209080519060200190610a35929190612ae5565b507f4f0d1d413a983b9df8ab6ab954635b186a1e9a09ee6dc1b43263ddbf484122676000809054906101000a900473ffffffffffffffffffffffffffffffffffffffff16604051610a869190613234565b60405180910390a1565b600260009054906101000a900473ffffffffffffffffffffffffffffffffffffffff1681565b6000809054906101000a900473ffffffffffffffffffffffffffffffffffffffff1681565b6000809054906101000a900473ffffffffffffffffffffffffffffffffffffffff1673ffffffffffffffffffffffffffffffffffffffff163373ffffffffffffffffffffffffffffffffffffffff16141515610b6c576040517f08c379a0000000000000000000000000000000000000000000000000000000008152600401610b6390613347565b60405180910390fd5b600360149054906101000a900460ff16158015610bd85750600073ffffffffffffffffffffffffffffffffffffffff16600160009054906101000a900473ffffffffffffffffffffffffffffffffffffffff1673ffffffffffffffffffffffffffffffffffffffff1614155b1515610c19576040517f08c379a0000000000000000000000000000000000000000000000000000000008152600401610c1090613427565b60405180910390fd5b67016345785d8a000034141515610c65576040517f08c379a0000000000000000000000000000000000000000000000000000000008152600401610c5c90613367565b60405180910390fd5b600e60008060009054906101000a900473ffffffffffffffffffffffffffffffffffffffff1673ffffffffffffffffffffffffffffffffffffffff1673ffffffffffffffffffffffffffffffffffffffff16815260200190815260200160002060006101000a81549060ff0219169055600e6000600160009054906101000a900473ffffffffffffffffffffffffffffffffffffffff1673ffffffffffffffffffffffffffffffffffffffff1673ffffffffffffffffffffffffffffffffffffffff16815260200190815260200160002060006101000a81549060ff0219169055600d6000600160009054906101000a900473ffffffffffffffffffffffffffffffffffffffff1673ffffffffffffffffffffffffffffffffffffffff1673ffffffffffffffffffffffffffffffffffffffff1681526020019081526020016000206000610db39190612b65565b600160006101000a81549073ffffffffffffffffffffffffffffffffffffffff0219169055600260006101000a81549073ffffffffffffffffffffffffffffffffffffffff021916905560046000610e0b9190612bad565b600360006101000a81549073ffffffffffffffffffffffffffffffffffffffff0219169055600f6000610e3e9190612b65565b565b600360009054906101000a900473ffffffffffffffffffffffffffffffffffffffff1681565b67016345785d8a000081565b600360159054906101000a900460ff161515610ec3576040517f08c379a0000000000000000000000000000000000000000000000000000000008152600401610eba90613407565b60405180910390fd5b6000809054906101000a900473ffffffffffffffffffffffffffffffffffffffff1673ffffffffffffffffffffffffffffffffffffffff163373ffffffffffffffffffffffffffffffffffffffff1614151515610f55576040517f08c379a0000000000000000000000000000000000000000000000000000000008152600401610f4c90613447565b60405180910390fd5b600073ffffffffffffffffffffffffffffffffffffffff16600160009054906101000a900473ffffffffffffffffffffffffffffffffffffffff1673ffffffffffffffffffffffffffffffffffffffff16141515610fe8576040517f08c379a0000000000000000000000000000000000000000000000000000000008152600401610fdf906133e7565b60405180910390fd5b67016345785d8a000034141515611034576040517f08c379a000000000000000000000000000000000000000000000000000000000815260040161102b90613327565b60405180910390fd5b33600160006101000a81548173ffffffffffffffffffffffffffffffffffffffff021916908373ffffffffffffffffffffffffffffffffffffffff1602179055507f31e760aa525306aba638a784082a013b6a1cc0a9a1789f3f22281c0453b10b1f600160009054906101000a900473ffffffffffffffffffffffffffffffffffffffff166040516110c69190613234565b60405180910390a16001600360146101000a81548160ff0219169083151502179055506040805190810160405280600181526020017f5800000000000000000000000000000000000000000000000000000000000000815250600d6000600160009054906101000a900473ffffffffffffffffffffffffffffffffffffffff1673ffffffffffffffffffffffffffffffffffffffff1673ffffffffffffffffffffffffffffffffffffffff1681526020019081526020016000209080519060200190611193929190612ae5565b506000809054906101000a900473ffffffffffffffffffffffffffffffffffffffff1673ffffffffffffffffffffffffffffffffffffffff166111d4612601565b73ffffffffffffffffffffffffffffffffffffffff161415611257576000809054906101000a900473ffffffffffffffffffffffffffffffffffffffff16600260006101000a81548173ffffffffffffffffffffffffffffffffffffffff021916908373ffffffffffffffffffffffffffffffffffffffff160217905550611319565b600160009054906101000a900473ffffffffffffffffffffffffffffffffffffffff1673ffffffffffffffffffffffffffffffffffffffff16611298612601565b73ffffffffffffffffffffffffffffffffffffffff16141561131857600160009054906101000a900473ffffffffffffffffffffffffffffffffffffffff16600260006101000a81548173ffffffffffffffffffffffffffffffffffffffff021916908373ffffffffffffffffffffffffffffffffffffffff1602179055505b5b7f95975a5cac9ad4b5953c1419a5f954acbb5ca210ae91a6f3e365cdd108e81740600260009054906101000a900473ffffffffffffffffffffffffffffffffffffffff1660405161136a9190613234565b60405180910390a1565b61137c612be0565b6004600380602002604051908101604052809291906000905b8282101561148057838260030201600380602002604051908101604052809291906000905b8282101561146d578382018054600181600116156101000203166002900480601f0160208091040260200160405190810160405280929190818152602001828054600181600116156101000203166002900480156114595780601f1061142e57610100808354040283529160200191611459565b820191906000526020600020905b81548152906001019060200180831161143c57829003601f168201915b5050505050815260200190600101906113ba565b5050505081526020019060010190611395565b50505050905090565b600160009054906101000a900473ffffffffffffffffffffffffffffffffffffffff1681565b600080600080915091505b600360169054906101000a900460ff1660ff168260ff1610156116b457600d6000600260009054906101000a900473ffffffffffffffffffffffffffffffffffffffff1673ffffffffffffffffffffffffffffffffffffffff1673ffffffffffffffffffffffffffffffffffffffff16815260200190815260200160002060405160200180828054600181600116156101000203166002900480156115965780601f10611574576101008083540402835291820191611596565b820191906000526020600020905b815481529060010190602001808311611582575b50509150506040516020818303038152906040528051906020012060048360ff166003811015156115c357fe5b600302018460ff166003811015156115d757fe5b0160405160200180828054600181600116156101000203166002900480156116365780601f10611614576101008083540402835291820191611636565b820191906000526020600020905b815481529060010190602001808311611622575b50509150506040516020818303038152906040528051906020012014156116a257808060010191505060038160ff16141561169d57611696600260009054906101000a900473ffffffffffffffffffffffffffffffffffffffff166126a2565b50506123e7565b6116a7565b6116b4565b81806001019250506114ba565b5050600080600080915091505b600360169054906101000a900460ff1660ff168260ff1610156118bb57600d6000600260009054906101000a900473ffffffffffffffffffffffffffffffffffffffff1673ffffffffffffffffffffffffffffffffffffffff1673ffffffffffffffffffffffffffffffffffffffff168152602001908152602001600020604051602001808280546001816001161561010002031660029004801561179d5780601f1061177b57610100808354040283529182019161179d565b820191906000526020600020905b815481529060010190602001808311611789575b50509150506040516020818303038152906040528051906020012060048560ff166003811015156117ca57fe5b600302018360ff166003811015156117de57fe5b01604051602001808280546001816001161561010002031660029004801561183d5780601f1061181b57610100808354040283529182019161183d565b820191906000526020600020905b815481529060010190602001808311611829575b50509150506040516020818303038152906040528051906020012014156118a957808060010191505060038160ff1614156118a45761189d600260009054906101000a900473ffffffffffffffffffffffffffffffffffffffff166126a2565b50506123e7565b6118ae565b6118bb565b81806001019250506116c1565b5050600d6000600260009054906101000a900473ffffffffffffffffffffffffffffffffffffffff1673ffffffffffffffffffffffffffffffffffffffff1673ffffffffffffffffffffffffffffffffffffffff168152602001908152602001600020604051602001808280546001816001161561010002031660029004801561197c5780601f1061195a57610100808354040283529182019161197c565b820191906000526020600020905b815481529060010190602001808311611968575b505091505060405160208183030381529060405280519060200120600460006003811015156119a757fe5b6003020160016003811015156119b957fe5b016040516020018082805460018160011615610100020316600290048015611a185780601f106119f6576101008083540402835291820191611a18565b820191906000526020600020905b815481529060010190602001808311611a04575b50509150506040516020818303038152906040528051906020012014158015611bb55750600d6000600260009054906101000a900473ffffffffffffffffffffffffffffffffffffffff1673ffffffffffffffffffffffffffffffffffffffff1673ffffffffffffffffffffffffffffffffffffffff1681526020019081526020016000206040516020018082805460018160011615610100020316600290048015611afb5780601f10611ad9576101008083540402835291820191611afb565b820191906000526020600020905b815481529060010190602001808311611ae7575b50509150506040516020818303038152906040528051906020012060046001600381101515611b2657fe5b600302016000600381101515611b3857fe5b016040516020018082805460018160011615610100020316600290048015611b975780601f10611b75576101008083540402835291820191611b97565b820191906000526020600020905b815481529060010190602001808311611b83575b50509150506040516020818303038152906040528051906020012014155b8015611d355750600d6000600260009054906101000a900473ffffffffffffffffffffffffffffffffffffffff1673ffffffffffffffffffffffffffffffffffffffff1673ffffffffffffffffffffffffffffffffffffffff1681526020019081526020016000206040516020018082805460018160011615610100020316600290048015611c7b5780601f10611c59576101008083540402835291820191611c7b565b820191906000526020600020905b815481529060010190602001808311611c67575b50509150506040516020818303038152906040528051906020012060046001600381101515611ca657fe5b600302016002600381101515611cb857fe5b016040516020018082805460018160011615610100020316600290048015611d175780601f10611cf5576101008083540402835291820191611d17565b820191906000526020600020905b815481529060010190602001808311611d03575b50509150506040516020818303038152906040528051906020012014155b8015611eb55750600d6000600260009054906101000a900473ffffffffffffffffffffffffffffffffffffffff1673ffffffffffffffffffffffffffffffffffffffff1673ffffffffffffffffffffffffffffffffffffffff1681526020019081526020016000206040516020018082805460018160011615610100020316600290048015611dfb5780601f10611dd9576101008083540402835291820191611dfb565b820191906000526020600020905b815481529060010190602001808311611de7575b50509150506040516020818303038152906040528051906020012060046002600381101515611e2657fe5b600302016001600381101515611e3857fe5b016040516020018082805460018160011615610100020316600290048015611e975780601f10611e75576101008083540402835291820191611e97565b820191906000526020600020905b815481529060010190602001808311611e83575b50509150506040516020818303038152906040528051906020012014155b156122dd57600080600080915091505b600360169054906101000a900460ff1660ff168260ff1610156120bf57600d6000600260009054906101000a900473ffffffffffffffffffffffffffffffffffffffff1673ffffffffffffffffffffffffffffffffffffffff1673ffffffffffffffffffffffffffffffffffffffff1681526020019081526020016000206040516020018082805460018160011615610100020316600290048015611fa15780601f10611f7f576101008083540402835291820191611fa1565b820191906000526020600020905b815481529060010190602001808311611f8d575b50509150506040516020818303038152906040528051906020012060048360ff16600381101515611fce57fe5b600302018360ff16600381101515611fe257fe5b0160405160200180828054600181600116156101000203166002900480156120415780601f1061201f576101008083540402835291820191612041565b820191906000526020600020905b81548152906001019060200180831161202d575b50509150506040516020818303038152906040528051906020012014156120ad57808060010191505060038160ff1614156120a8576120a1600260009054906101000a900473ffffffffffffffffffffffffffffffffffffffff166126a2565b50506123e7565b6120b2565b6120bf565b8180600101925050611ec5565b5050600080600080915091505b600360169054906101000a900460ff1660ff168260ff1610156122da57600d6000600260009054906101000a900473ffffffffffffffffffffffffffffffffffffffff1673ffffffffffffffffffffffffffffffffffffffff1673ffffffffffffffffffffffffffffffffffffffff16815260200190815260200160002060405160200180828054600181600116156101000203166002900480156121a85780601f106121865761010080835404028352918201916121a8565b820191906000526020600020905b815481529060010190602001808311612194575b50509150506040516020818303038152906040528051906020012060048360ff166003811015156121d557fe5b60030201600184600360169054906101000a900460ff16030360ff166003811015156121fd57fe5b01604051602001808280546001816001161561010002031660029004801561225c5780601f1061223a57610100808354040283529182019161225c565b820191906000526020600020905b815481529060010190602001808311612248575b50509150506040516020818303038152906040528051906020012014156122c857808060010191505060038160ff1614156122c3576122bc600260009054906101000a900473ffffffffffffffffffffffffffffffffffffffff166126a2565b50506123e7565b6122cd565b6122da565b81806001019250506120cc565b50505b6002600360169054906101000a900460ff1660ff160a60ff16600e6000600160009054906101000a900473ffffffffffffffffffffffffffffffffffffffff1673ffffffffffffffffffffffffffffffffffffffff1673ffffffffffffffffffffffffffffffffffffffff16815260200190815260200160002060009054906101000a900460ff16600e60008060009054906101000a900473ffffffffffffffffffffffffffffffffffffffff1673ffffffffffffffffffffffffffffffffffffffff1673ffffffffffffffffffffffffffffffffffffffff16815260200190815260200160002060009054906101000a900460ff160160ff1614156123e6576123e5612901565b5b5b5050565b6000809054906101000a900473ffffffffffffffffffffffffffffffffffffffff1673ffffffffffffffffffffffffffffffffffffffff16600260009054906101000a900473ffffffffffffffffffffffffffffffffffffffff1673ffffffffffffffffffffffffffffffffffffffff1614156124ca57600160009054906101000a900473ffffffffffffffffffffffffffffffffffffffff16600260006101000a81548173ffffffffffffffffffffffffffffffffffffffff021916908373ffffffffffffffffffffffffffffffffffffffff1602179055506125a6565b600160009054906101000a900473ffffffffffffffffffffffffffffffffffffffff1673ffffffffffffffffffffffffffffffffffffffff16600260009054906101000a900473ffffffffffffffffffffffffffffffffffffffff1673ffffffffffffffffffffffffffffffffffffffff1614156125a5576000809054906101000a900473ffffffffffffffffffffffffffffffffffffffff16600260006101000a81548173ffffffffffffffffffffffffffffffffffffffff021916908373ffffffffffffffffffffffffffffffffffffffff1602179055505b5b7f95975a5cac9ad4b5953c1419a5f954acbb5ca210ae91a6f3e365cdd108e81740600260009054906101000a900473ffffffffffffffffffffffffffffffffffffffff166040516125f79190613234565b60405180910390a1565b600080600242436040516020018083815260200182815260200192505050604051602081830303815290604052805190602001206001900481151561264257fe5b0690506000811415612678576000809054906101000a900473ffffffffffffffffffffffffffffffffffffffff1691505061269f565b600160009054906101000a900473ffffffffffffffffffffffffffffffffffffffff169150505b90565b6000600360146101000a81548160ff02191690831515021790555080600360006101000a81548173ffffffffffffffffffffffffffffffffffffffff021916908373ffffffffffffffffffffffffffffffffffffffff1602179055506000809054906101000a900473ffffffffffffffffffffffffffffffffffffffff1673ffffffffffffffffffffffffffffffffffffffff168173ffffffffffffffffffffffffffffffffffffffff1614156127a4576040805190810160405280600b81526020017f686f7374566963746f7279000000000000000000000000000000000000000000815250600f908051906020019061279e929190612ae5565b506127f1565b6040805190810160405280600c81526020017f6775657374566963746f72790000000000000000000000000000000000000000815250600f90805190602001906127ef929190612ae5565b505b600260006101000a81549073ffffffffffffffffffffffffffffffffffffffff02191690557f8faeeac76a6e18b7d45e0ec2ae51d949cc784f877b0c55bbc21157f141d61cc8600f826040516128489291906132d7565b60405180910390a17f6ae495f483891de86c9e2a648b5510f7db2f2dfc77617fedffb8de30765735cb813073ffffffffffffffffffffffffffffffffffffffff163160405161289892919061326a565b60405180910390a18073ffffffffffffffffffffffffffffffffffffffff166108fc3073ffffffffffffffffffffffffffffffffffffffff16319081150290604051600060405180830381858888f193505050501580156128fd573d6000803e3d6000fd5b5050565b6000600360146101000a81548160ff0219169083151502179055506040805190810160405280600381526020017f7469650000000000000000000000000000000000000000000000000000000000815250600f9080519060200190612967929190612ae5565b50600260006101000a81549073ffffffffffffffffffffffffffffffffffffffff02191690557f8faeeac76a6e18b7d45e0ec2ae51d949cc784f877b0c55bbc21157f141d61cc8600f600260009054906101000a900473ffffffffffffffffffffffffffffffffffffffff166040516129e19291906132d7565b60405180910390a1600060023073ffffffffffffffffffffffffffffffffffffffff1631811515612a0e57fe5b0490506000809054906101000a900473ffffffffffffffffffffffffffffffffffffffff1673ffffffffffffffffffffffffffffffffffffffff166108fc829081150290604051600060405180830381858888f19350505050158015612a78573d6000803e3d6000fd5b50600160009054906101000a900473ffffffffffffffffffffffffffffffffffffffff1673ffffffffffffffffffffffffffffffffffffffff166108fc829081150290604051600060405180830381858888f19350505050158015612ae1573d6000803e3d6000fd5b5050565b828054600181600116156101000203166002900490600052602060002090601f016020900481019282601f10612b2657805160ff1916838001178555612b54565b82800160010185558215612b54579182015b82811115612b53578251825591602001919060010190612b38565b5b509050612b619190612c0f565b5090565b50805460018160011615610100020316600290046000825580601f10612b8b5750612baa565b601f016020900490600052602060002090810190612ba99190612c0f565b5b50565b5060008181612bbc9190612c34565b5060030160008181612bce9190612c34565b506003016000612bde9190612c34565b565b610120604051908101604052806003905b612bf9612c67565b815260200190600190039081612bf15790505090565b612c3191905b80821115612c2d576000816000905550600101612c15565b5090565b90565b5060008181612c439190612b65565b5060010160008181612c559190612b65565b506001016000612c659190612b65565b565b6060604051908101604052806003905b6060815260200190600190039081612c775790505090565b6000612c9b8235613551565b905092915050565b60008060408385031215612cb657600080fd5b6000612cc485828601612c8f565b9250506020612cd585828601612c8f565b9150509250929050565b612ce88161355e565b82525050565b612cf781613515565b82525050565b612d0681613503565b82525050565b6000612d17826134c8565b83602082028501612d27856134a2565b60005b84811015612d60578383038852612d42838351612d71565b9250612d4d826134e9565b9150602088019750600181019050612d2a565b508196508694505050505092915050565b6000612d7c826134d3565b83602082028501612d8c856134ac565b60005b84811015612dc5578383038852612da7838351612dd6565b9250612db2826134f6565b9150602088019750600181019050612d8f565b508196508694505050505092915050565b6000612de1826134de565b808452612df5816020860160208601613594565b612dfe816135c7565b602085010191505092915050565b600081546001811660008114612e295760018114612e4957612e8a565b607f600283041680865260ff198316602087015260408601935050612e8a565b60028204808652602086019550612e5f856134b6565b60005b82811015612e8157815481890152600182019150602081019050612e62565b80880195505050505b505092915050565b6000601382527f69742773206e6f7420796f7572207475726e21000000000000000000000000006020830152604082019050919050565b6000602d82527f67616d654a6f696e6572206d7573742073656e642067616d65436f737420746f60208301527f2074686520636f6e7472616374000000000000000000000000000000000000006040830152606082019050919050565b6000602282527f6f6e6c792063726561746f72206861732074686520726573746172742072696760208301527f68740000000000000000000000000000000000000000000000000000000000006040830152606082019050919050565b6000602b82527f72657374617274206d7573742073656e642067616d65436f737420746f20746860208301527f6520636f6e7472616374210000000000000000000000000000000000000000006040830152606082019050919050565b6000602582527f4669656c64206e6f7420656d7074792c20796f752063616e6e6f74207365742060208301527f68657265210000000000000000000000000000000000000000000000000000006040830152606082019050919050565b6000602d82527f63726561746f72206d7573742073656e642067616d65436f737420746f20637260208301527f65617465207468652067616d65000000000000000000000000000000000000006040830152606082019050919050565b6000601482527f676f206265796f6e64207468652073636f7065210000000000000000000000006020830152604082019050919050565b6000601982527f6775657374506c6179657220616c7265616479206578697374000000000000006020830152604082019050919050565b6000601b82527f67616d65206d75737420626520637265617465642066697273742100000000006020830152604082019050919050565b6000602b82527f796f752063616e206f6e6c79207265737461727420616674657220746865206760208301527f616d65206973206f7665720000000000000000000000000000000000000000006040830152606082019050919050565b6000602082527f67616d6543726561746f722063616e6e6f74206a6f696e207468652067616d656020830152604082019050919050565b6000601882527f7468652067616d65206973206e6f742072756e6e696e672100000000000000006020830152604082019050919050565b61321381613547565b82525050565b600060208201905061322e6000830184612cfd565b92915050565b60006020820190506132496000830184612cdf565b92915050565b60006020820190506132646000830184612cee565b92915050565b600060408201905061327f6000830185612cdf565b61328c602083018461320a565b9392505050565b600060208201905081810360008301526132ad8184612d0c565b905092915050565b600060208201905081810360008301526132cf8184612dd6565b905092915050565b600060408201905081810360008301526132f18185612e0c565b90506133006020830184612cdf565b9392505050565b6000602082019050818103600083015261332081612e92565b9050919050565b6000602082019050818103600083015261334081612ec9565b9050919050565b6000602082019050818103600083015261336081612f26565b9050919050565b6000602082019050818103600083015261338081612f83565b9050919050565b600060208201905081810360008301526133a081612fe0565b9050919050565b600060208201905081810360008301526133c08161303d565b9050919050565b600060208201905081810360008301526133e08161309a565b9050919050565b60006020820190508181036000830152613400816130d1565b9050919050565b6000602082019050818103600083015261342081613108565b9050919050565b600060208201905081810360008301526134408161313f565b9050919050565b600060208201905081810360008301526134608161319c565b9050919050565b60006020820190508181036000830152613480816131d3565b9050919050565b600060208201905061349c600083018461320a565b92915050565b6000819050919050565b6000819050919050565b60008160005260206000209050919050565b600060039050919050565b600060039050919050565b600081519050919050565b6000602082019050919050565b6000602082019050919050565b600061350e82613527565b9050919050565b600061352082613527565b9050919050565b600073ffffffffffffffffffffffffffffffffffffffff82169050919050565b6000819050919050565b600060ff82169050919050565b600061356982613570565b9050919050565b600061357b82613582565b9050919050565b600061358d82613527565b9050919050565b60005b838110156135b2578082015181840152602081019050613597565b838111156135c1576000848401525b50505050565b6000601f19601f830116905091905056fea265627a7a723058207186986af789f52cd079636bae0af7557c2707c9557933b64116b2963bc6c7356c6578706572696d656e74616cf50037",
  "source": "pragma solidity >=0.5.0 <=0.6.0;\npragma experimental ABIEncoderV2;\n\n//import \"./Console.sol\";\n\ncontract TicTacToe {\n\n    uint constant public gameCost = 0.1 ether;\n\n    address payable public hostPlayer;\n    address payable public guestPlayer;\n    address payable public activePlayer;\n    address public victorPlayer;\n\n    bool private gameRunning;\n    bool private gameCreated;\n\n    uint8 private chessboardSize = 3;\n    string[3][3] private chessboard;\n    //\"O\"(host) or \"X\"(guest)\n    mapping(address => string) private playerChess;\n    mapping(address => uint8) private movesCount;\n\n    string public gameResult;\n\n    event GameCreated(address creatorAddr);\n    event PlayerJoined(address playerAddr);\n    event ActivePlayer(address activePlayerAddr);\n    event GameFinished(string gameResult, address victor);\n    event VictoryAward(address receiver, uint amount);\n\n    constructor() public{\n        gameRunning = false;\n    }\n\n    function getWholeBoard() public view returns (string[3][3] memory){\n        return chessboard;\n    }\n\n    function createGame() public payable {\n        require(msg.value == gameCost, \"creator must send gameCost to create the game\");\n        hostPlayer = msg.sender;\n        gameCreated = true;\n        playerChess[hostPlayer] = \"O\";\n        emit GameCreated(hostPlayer);\n    }\n\n    function joinGame() public payable {\n        require(gameCreated,\"game must be created first!\");\n        require(msg.sender != hostPlayer, \"gameCreator cannot join the game\");\n        require(guestPlayer == address(0), \"guestPlayer already exist\");\n        require(msg.value == gameCost, \"gameJoiner must send gameCost to the contract\");\n        guestPlayer = msg.sender;\n        emit PlayerJoined(guestPlayer);\n        //\n        gameRunning = true;\n        playerChess[guestPlayer] = \"X\";\n        if (randomStart() == hostPlayer) {\n            activePlayer = hostPlayer;\n        } else if (randomStart() == guestPlayer) {\n            activePlayer = guestPlayer;\n        }\n        emit ActivePlayer(activePlayer);\n    }\n\n    //,??\n    //activeplayer \n    function randomStart() private view returns (address) {\n        uint rand = uint(keccak256(abi.encodePacked(now, block.number))) % 2;\n        if (rand == 0) {\n            return hostPlayer;\n        } else {\n            return guestPlayer;\n        }\n    }\n\n    //gameCost\n    function restartGame() public payable {\n        require(msg.sender == hostPlayer, \"only creator has the restart right\");\n        //guestPlayer creator\n        require(!gameRunning && guestPlayer != address(0), \"you can only restart after the game is over\");\n        require(msg.value == gameCost, \"restart must send gameCost to the contract!\");\n\n        //,guestPlayer\n        delete movesCount[hostPlayer];\n        delete movesCount[guestPlayer];\n        //,guestPlayer\n        delete playerChess[guestPlayer];\n\n        //guestPlayer,hostPlayer\n        delete guestPlayer;\n        //(activePlayer=address(0);)\n        delete activePlayer;\n        //\n        delete chessboard;\n        //\n        delete victorPlayer;\n        delete gameResult;\n    }\n\n    function getBonuspool() public view returns (uint){\n        return address(this).balance;\n    }\n\n    function setChess(uint8 row, uint8 column) public {\n        require(gameRunning, \"the game is not running!\");\n        require(msg.sender == activePlayer, \"it's not your turn!\");\n        require(row < 3 && column < 3, \"go beyond the scope!\");\n        require(keccak256(abi.encodePacked(chessboard[row][column])) == keccak256(abi.encodePacked(\"\")), \"Field not empty, you cannot set here!\");\n\n        if (msg.sender == hostPlayer) {\n            //host\n            chessboard[row][column] = \"O\";\n            movesCount[hostPlayer]++;\n        } else {\n            //guest\n            chessboard[row][column] = \"X\";\n            movesCount[guestPlayer]++;\n        }\n\n        //5\n        if ((movesCount[hostPlayer] + movesCount[guestPlayer]) >= (chessboardSize * 2 - 1)) {\n            //Console.log(\"settle\", now);\n            settleStage(row, column);\n        }\n\n        if (gameRunning) {\n            takeTurnStage();\n        }\n    }\n\n    //ether\n    function setVictor(address payable player) private {\n        gameRunning = false;\n\n        victorPlayer = player;\n        if (player == hostPlayer) {\n            gameResult = \"hostVictory\";\n        } else {\n            gameResult = \"guestVictory\";\n        }\n        delete activePlayer;\n        emit GameFinished(gameResult, player);\n        //\n        emit VictoryAward(player,address(this).balance);\n        player.transfer(address(this).balance);\n    }\n\n    // setTieether \n    //\n    function setTie() private {\n        gameRunning = false;\n        gameResult = \"tie\";\n        delete activePlayer;\n        emit GameFinished(gameResult, activePlayer);\n        //\n        uint tieAward = address(this).balance / 2;\n        hostPlayer.transfer(tieAward);\n        guestPlayer.transfer(tieAward);\n    }\n\n    //\n    function settleStage(uint8 player_row, uint8 player_column) private {\n        // 3\n        //Console.log(\"firstJudge\", now);\n        //uint8 row_count = 0;\n        for ((uint8 row, uint8 row_count) = (0,0); row < chessboardSize; row++) {\n            if (keccak256(abi.encodePacked(chessboard[row][player_column])) == keccak256(abi.encodePacked(playerChess[activePlayer]))) {\n                row_count++;\n                if (row_count == 3) {\n                    //activePlayer is winner\n                    setVictor(activePlayer);\n                    return;\n                }\n            } else {\n                break;\n            }\n        }\n\n        //Console.log(\"secondJudge\", now);\n        //3\n        //uint8 column_count = 0;\n        for ((uint8 column, uint8 column_count) = (0,0); column < chessboardSize; column++) {\n            if (keccak256(abi.encodePacked(chessboard[player_row][column])) == keccak256(abi.encodePacked(playerChess[activePlayer]))) {\n                column_count++;\n                if (column_count == 3) {\n                    //activePlayer is winner\n                    setVictor(activePlayer);\n                    return;\n                }\n            } else {\n                break;\n            }\n        }\n\n        //Console.log(\"thirdJudge\", now);\n        // \n        if (keccak256(abi.encodePacked(chessboard[0][1])) != keccak256(abi.encodePacked(playerChess[activePlayer])) &&\n        keccak256(abi.encodePacked(chessboard[1][0])) != keccak256(abi.encodePacked(playerChess[activePlayer])) &&\n        keccak256(abi.encodePacked(chessboard[1][2])) != keccak256(abi.encodePacked(playerChess[activePlayer])) &&\n        keccak256(abi.encodePacked(chessboard[2][1])) != keccak256(abi.encodePacked(playerChess[activePlayer]))) {\n\n            //uint8 diagonalCount = 0;\n            for ((uint8 i, uint8 diagonalCount) = (0,0); i < chessboardSize; i++) {\n                if (keccak256(abi.encodePacked(chessboard[i][i])) == keccak256(abi.encodePacked(playerChess[activePlayer]))) {\n                    diagonalCount++;\n                    if (diagonalCount == 3) {\n                        //activePlayer is winner\n                        setVictor(activePlayer);\n                        return;\n                    }\n                } else {\n                    break;\n                }\n            }\n\n\n            //uint8 anti_diagonalCount = 0;\n            for ((uint8 j, uint8 anti_diagonalCount) = (0,0); j < chessboardSize; j++) {\n                if (keccak256(abi.encodePacked(chessboard[j][chessboardSize - j - 1])) == keccak256(abi.encodePacked(playerChess[activePlayer]))) {\n                    anti_diagonalCount++;\n                    if (anti_diagonalCount == 3) {\n                        //activePlayer is winner\n                        setVictor(activePlayer);\n                        return;\n                    }\n                } else {\n                    break;\n                }\n            }\n        }\n\n        //\n        if ((movesCount[hostPlayer] + movesCount[guestPlayer]) == (chessboardSize ** 2)) {\n            //tie\n            setTie();\n        }\n    }\n\n    //\n    function takeTurnStage() private {\n        if (activePlayer == hostPlayer) {\n            activePlayer = guestPlayer;\n        } else if (activePlayer == guestPlayer) {\n            activePlayer = hostPlayer;\n        }\n        emit ActivePlayer(activePlayer);\n    }\n}\n\n",
  "sourcePath": "/Users/superman285/Programmer/MyWorks/TicTacToe/contracts/TicTacToe.sol",
  "compiler": {
    "name": "solc",
    "version": "0.5.0+commit.1d4f565a.Emscripten.clang"
  },
  "schemaVersion": "3.0.5",
  "updatedAt": "2019-03-26T11:08:51.197Z",
  "devdoc": {
    "methods": {}
  },
  "userdoc": {
    "methods": {}
  }
}