{
  "contractName": "TicTacToe",
  "abi": [
    {
      "constant": true,
      "inputs": [],
      "name": "chessboardSize",
      "outputs": [
        {
          "name": "",
          "type": "uint8"
        }
      ],
      "payable": false,
      "stateMutability": "view",
      "type": "function"
    },
    {
      "constant": true,
      "inputs": [
        {
          "name": "",
          "type": "address"
        }
      ],
      "name": "movesCount",
      "outputs": [
        {
          "name": "",
          "type": "uint8"
        }
      ],
      "payable": false,
      "stateMutability": "view",
      "type": "function"
    },
    {
      "constant": true,
      "inputs": [
        {
          "name": "",
          "type": "address"
        }
      ],
      "name": "playerChess",
      "outputs": [
        {
          "name": "",
          "type": "string"
        }
      ],
      "payable": false,
      "stateMutability": "view",
      "type": "function"
    },
    {
      "constant": true,
      "inputs": [],
      "name": "gameRunning",
      "outputs": [
        {
          "name": "",
          "type": "bool"
        }
      ],
      "payable": false,
      "stateMutability": "view",
      "type": "function"
    },
    {
      "constant": true,
      "inputs": [],
      "name": "gameResult",
      "outputs": [
        {
          "name": "",
          "type": "string"
        }
      ],
      "payable": false,
      "stateMutability": "view",
      "type": "function"
    },
    {
      "constant": true,
      "inputs": [],
      "name": "activePlayer",
      "outputs": [
        {
          "name": "",
          "type": "address"
        }
      ],
      "payable": false,
      "stateMutability": "view",
      "type": "function"
    },
    {
      "constant": true,
      "inputs": [],
      "name": "hostPlayer",
      "outputs": [
        {
          "name": "",
          "type": "address"
        }
      ],
      "payable": false,
      "stateMutability": "view",
      "type": "function"
    },
    {
      "constant": true,
      "inputs": [],
      "name": "victorPlayer",
      "outputs": [
        {
          "name": "",
          "type": "address"
        }
      ],
      "payable": false,
      "stateMutability": "view",
      "type": "function"
    },
    {
      "constant": true,
      "inputs": [],
      "name": "gameCost",
      "outputs": [
        {
          "name": "",
          "type": "uint256"
        }
      ],
      "payable": false,
      "stateMutability": "view",
      "type": "function"
    },
    {
      "constant": true,
      "inputs": [],
      "name": "guestPlayer",
      "outputs": [
        {
          "name": "",
          "type": "address"
        }
      ],
      "payable": false,
      "stateMutability": "view",
      "type": "function"
    },
    {
      "constant": true,
      "inputs": [
        {
          "name": "",
          "type": "uint256"
        },
        {
          "name": "",
          "type": "uint256"
        }
      ],
      "name": "chessboard",
      "outputs": [
        {
          "name": "",
          "type": "string"
        }
      ],
      "payable": false,
      "stateMutability": "view",
      "type": "function"
    },
    {
      "inputs": [],
      "payable": true,
      "stateMutability": "payable",
      "type": "constructor"
    },
    {
      "anonymous": false,
      "inputs": [
        {
          "indexed": false,
          "name": "playerAddr",
          "type": "address"
        }
      ],
      "name": "PlayerJoined",
      "type": "event"
    },
    {
      "anonymous": false,
      "inputs": [
        {
          "indexed": false,
          "name": "activePlayerAddr",
          "type": "address"
        }
      ],
      "name": "ActivePlayer",
      "type": "event"
    },
    {
      "anonymous": false,
      "inputs": [
        {
          "indexed": false,
          "name": "gameResult",
          "type": "string"
        },
        {
          "indexed": false,
          "name": "victor",
          "type": "address"
        }
      ],
      "name": "GameFinished",
      "type": "event"
    },
    {
      "anonymous": false,
      "inputs": [
        {
          "indexed": false,
          "name": "receiver",
          "type": "address"
        },
        {
          "indexed": false,
          "name": "amount",
          "type": "uint256"
        }
      ],
      "name": "VictoryAward",
      "type": "event"
    },
    {
      "constant": true,
      "inputs": [],
      "name": "getWholeBoard",
      "outputs": [
        {
          "name": "",
          "type": "string[3][3]"
        }
      ],
      "payable": false,
      "stateMutability": "view",
      "type": "function"
    },
    {
      "constant": false,
      "inputs": [],
      "name": "joinGame",
      "outputs": [],
      "payable": true,
      "stateMutability": "payable",
      "type": "function"
    },
    {
      "constant": false,
      "inputs": [],
      "name": "restartGame",
      "outputs": [],
      "payable": true,
      "stateMutability": "payable",
      "type": "function"
    },
    {
      "constant": true,
      "inputs": [],
      "name": "getBonuspool",
      "outputs": [
        {
          "name": "",
          "type": "uint256"
        }
      ],
      "payable": false,
      "stateMutability": "view",
      "type": "function"
    },
    {
      "constant": false,
      "inputs": [
        {
          "name": "row",
          "type": "uint8"
        },
        {
          "name": "column",
          "type": "uint8"
        }
      ],
      "name": "setChess",
      "outputs": [],
      "payable": false,
      "stateMutability": "nonpayable",
      "type": "function"
    }
  ],
  "bytecode": "0x60806040526003600560006101000a81548160ff021916908360ff16021790555067016345785d8a0000341415156200006f576040517f08c379a0000000000000000000000000000000000000000000000000000000008152600401620000669062000288565b60405180910390fd5b336000806101000a81548173ffffffffffffffffffffffffffffffffffffffff021916908373ffffffffffffffffffffffffffffffffffffffff1602179055506000600360146101000a81548160ff0219169083151502179055506040805190810160405280600181526020017f4f00000000000000000000000000000000000000000000000000000000000000815250600f60008060009054906101000a900473ffffffffffffffffffffffffffffffffffffffff1673ffffffffffffffffffffffffffffffffffffffff1673ffffffffffffffffffffffffffffffffffffffff1681526020019081526020016000209080519060200190620001759291906200017c565b50620002aa565b828054600181600116156101000203166002900490600052602060002090601f016020900481019282601f10620001bf57805160ff1916838001178555620001f0565b82800160010185558215620001f0579182015b82811115620001ef578251825591602001919060010190620001d2565b5b509050620001ff919062000203565b5090565b6200022891905b80821115620002245760008160009055506001016200020a565b5090565b90565b6000602b82527f63726561746f72206d7573742073656e642067616d65436f737420746f20746860208301527f6520636f6e7472616374210000000000000000000000000000000000000000006040830152606082019050919050565b60006020820190508181036000830152620002a3816200022b565b9050919050565b61374180620002ba6000396000f3fe6080604052600436106100e6576000357c0100000000000000000000000000000000000000000000000000000000900463ffffffff168063198c7023146100eb57806341312312146101165780635aff77a0146101535780636690fcf31461017c5780636cc1e88e146101b95780636e8c2caf146101e45780637152f8001461020f5780637fdffd231461023a5780638039ed53146102655780638d25af0414610290578063b6ff6a521461029a578063cab896dc146102c5578063d4f77b1c146102f0578063d59d31ac146102fa578063dfeada9414610325578063f2a5c7e814610350575b600080fd5b3480156100f757600080fd5b5061010061038d565b60405161010d9190613581565b60405180910390f35b34801561012257600080fd5b5061013d60048036036101389190810190612db8565b6103a0565b60405161014a9190613581565b60405180910390f35b34801561015f57600080fd5b5061017a60048036036101759190810190612e1d565b6103c0565b005b34801561018857600080fd5b506101a3600480360361019e9190810190612db8565b61098a565b6040516101b091906133d4565b60405180910390f35b3480156101c557600080fd5b506101ce610a3a565b6040516101db9190613566565b60405180910390f35b3480156101f057600080fd5b506101f9610a59565b60405161020691906133b9565b60405180910390f35b34801561021b57600080fd5b50610224610a6c565b60405161023191906133d4565b60405180910390f35b34801561024657600080fd5b5061024f610b0a565b60405161025c9190613353565b60405180910390f35b34801561027157600080fd5b5061027a610b30565b6040516102879190613353565b60405180910390f35b610298610b55565b005b3480156102a657600080fd5b506102af610eba565b6040516102bc919061331d565b60405180910390f35b3480156102d157600080fd5b506102da610ee0565b6040516102e79190613566565b60405180910390f35b6102f8610eec565b005b34801561030657600080fd5b5061030f61139d565b60405161031c9190613397565b60405180910390f35b34801561033157600080fd5b5061033a6114b2565b6040516103479190613353565b60405180910390f35b34801561035c57600080fd5b5061037760048036036103729190810190612de1565b6114d8565b60405161038491906133d4565b60405180910390f35b600560009054906101000a900460ff1681565b60106020528060005260406000206000915054906101000a900460ff1681565b600360149054906101000a900460ff161515610411576040517f08c379a000000000000000000000000000000000000000000000000000000000815260040161040890613546565b60405180910390fd5b600260009054906101000a900473ffffffffffffffffffffffffffffffffffffffff1673ffffffffffffffffffffffffffffffffffffffff163373ffffffffffffffffffffffffffffffffffffffff161415156104a3576040517f08c379a000000000000000000000000000000000000000000000000000000000815260040161049a90613426565b60405180910390fd5b60038260ff161080156104b9575060038160ff16105b15156104fa576040517f08c379a00000000000000000000000000000000000000000000000000000000081526004016104f1906134c6565b60405180910390fd5b6040516020018060000190506040516020818303038152906040528051906020012060068360ff1660038110151561052e57fe5b600302018260ff1660038110151561054257fe5b0160405160200180828054600181600116156101000203166002900480156105a15780601f1061057f5761010080835404028352918201916105a1565b820191906000526020600020905b81548152906001019060200180831161058d575b5050915050604051602081830303815290604052805190602001201415156105fe576040517f08c379a00000000000000000000000000000000000000000000000000000000081526004016105f5906134a6565b60405180910390fd5b6000809054906101000a900473ffffffffffffffffffffffffffffffffffffffff1673ffffffffffffffffffffffffffffffffffffffff163373ffffffffffffffffffffffffffffffffffffffff161415610759576040805190810160405280600181526020017f4f0000000000000000000000000000000000000000000000000000000000000081525060068360ff1660038110151561069b57fe5b600302018260ff166003811015156106af57fe5b0190805190602001906106c3929190612bd2565b50601060008060009054906101000a900473ffffffffffffffffffffffffffffffffffffffff1673ffffffffffffffffffffffffffffffffffffffff1673ffffffffffffffffffffffffffffffffffffffff168152602001908152602001600020600081819054906101000a900460ff168092919060010191906101000a81548160ff021916908360ff1602179055505061085c565b6040805190810160405280600181526020017f580000000000000000000000000000000000000000000000000000000000000081525060068360ff166003811015156107a157fe5b600302018260ff166003811015156107b557fe5b0190805190602001906107c9929190612bd2565b5060106000600160009054906101000a900473ffffffffffffffffffffffffffffffffffffffff1673ffffffffffffffffffffffffffffffffffffffff1673ffffffffffffffffffffffffffffffffffffffff168152602001908152602001600020600081819054906101000a900460ff168092919060010191906101000a81548160ff021916908360ff160217905550505b60016002600560009054906101000a900460ff16020360ff1660106000600160009054906101000a900473ffffffffffffffffffffffffffffffffffffffff1673ffffffffffffffffffffffffffffffffffffffff1673ffffffffffffffffffffffffffffffffffffffff16815260200190815260200160002060009054906101000a900460ff16601060008060009054906101000a900473ffffffffffffffffffffffffffffffffffffffff1673ffffffffffffffffffffffffffffffffffffffff1673ffffffffffffffffffffffffffffffffffffffff16815260200190815260200160002060009054906101000a900460ff160160ff1610151561096857610967828261159c565b5b600360149054906101000a900460ff1615610986576109856124d8565b5b5050565b600f6020528060005260406000206000915090508054600181600116156101000203166002900480601f016020809104026020016040519081016040528092919081815260200182805460018160011615610100020316600290048015610a325780601f10610a0757610100808354040283529160200191610a32565b820191906000526020600020905b815481529060010190602001808311610a1557829003601f168201915b505050505081565b60003073ffffffffffffffffffffffffffffffffffffffff1631905090565b600360149054906101000a900460ff1681565b60048054600181600116156101000203166002900480601f016020809104026020016040519081016040528092919081815260200182805460018160011615610100020316600290048015610b025780601f10610ad757610100808354040283529160200191610b02565b820191906000526020600020905b815481529060010190602001808311610ae557829003601f168201915b505050505081565b600260009054906101000a900473ffffffffffffffffffffffffffffffffffffffff1681565b6000809054906101000a900473ffffffffffffffffffffffffffffffffffffffff1681565b6000809054906101000a900473ffffffffffffffffffffffffffffffffffffffff1673ffffffffffffffffffffffffffffffffffffffff163373ffffffffffffffffffffffffffffffffffffffff16141515610be6576040517f08c379a0000000000000000000000000000000000000000000000000000000008152600401610bdd90613466565b60405180910390fd5b600360149054906101000a900460ff16158015610c525750600073ffffffffffffffffffffffffffffffffffffffff16600160009054906101000a900473ffffffffffffffffffffffffffffffffffffffff1673ffffffffffffffffffffffffffffffffffffffff1614155b1515610c93576040517f08c379a0000000000000000000000000000000000000000000000000000000008152600401610c8a90613506565b60405180910390fd5b67016345785d8a000034141515610cdf576040517f08c379a0000000000000000000000000000000000000000000000000000000008152600401610cd690613486565b60405180910390fd5b601060008060009054906101000a900473ffffffffffffffffffffffffffffffffffffffff1673ffffffffffffffffffffffffffffffffffffffff1673ffffffffffffffffffffffffffffffffffffffff16815260200190815260200160002060006101000a81549060ff021916905560106000600160009054906101000a900473ffffffffffffffffffffffffffffffffffffffff1673ffffffffffffffffffffffffffffffffffffffff1673ffffffffffffffffffffffffffffffffffffffff16815260200190815260200160002060006101000a81549060ff0219169055600f6000600160009054906101000a900473ffffffffffffffffffffffffffffffffffffffff1673ffffffffffffffffffffffffffffffffffffffff1673ffffffffffffffffffffffffffffffffffffffff1681526020019081526020016000206000610e2d9190612c52565b600160006101000a81549073ffffffffffffffffffffffffffffffffffffffff0219169055600260006101000a81549073ffffffffffffffffffffffffffffffffffffffff021916905560066000610e859190612c9a565b600360006101000a81549073ffffffffffffffffffffffffffffffffffffffff021916905560046000610eb89190612c52565b565b600360009054906101000a900473ffffffffffffffffffffffffffffffffffffffff1681565b67016345785d8a000081565b6000809054906101000a900473ffffffffffffffffffffffffffffffffffffffff1673ffffffffffffffffffffffffffffffffffffffff163373ffffffffffffffffffffffffffffffffffffffff1614151515610f7e576040517f08c379a0000000000000000000000000000000000000000000000000000000008152600401610f7590613526565b60405180910390fd5b600073ffffffffffffffffffffffffffffffffffffffff16600160009054906101000a900473ffffffffffffffffffffffffffffffffffffffff1673ffffffffffffffffffffffffffffffffffffffff16141515611011576040517f08c379a0000000000000000000000000000000000000000000000000000000008152600401611008906134e6565b60405180910390fd5b67016345785d8a00003414151561105d576040517f08c379a000000000000000000000000000000000000000000000000000000000815260040161105490613446565b60405180910390fd5b33600160006101000a81548173ffffffffffffffffffffffffffffffffffffffff021916908373ffffffffffffffffffffffffffffffffffffffff1602179055507f31e760aa525306aba638a784082a013b6a1cc0a9a1789f3f22281c0453b10b1f600160009054906101000a900473ffffffffffffffffffffffffffffffffffffffff166040516110ef9190613338565b60405180910390a16001600360146101000a81548160ff0219169083151502179055506040805190810160405280600181526020017f5800000000000000000000000000000000000000000000000000000000000000815250600f6000600160009054906101000a900473ffffffffffffffffffffffffffffffffffffffff1673ffffffffffffffffffffffffffffffffffffffff1673ffffffffffffffffffffffffffffffffffffffff16815260200190815260200160002090805190602001906111bc929190612bd2565b506000809054906101000a900473ffffffffffffffffffffffffffffffffffffffff1673ffffffffffffffffffffffffffffffffffffffff166111fd6126ee565b73ffffffffffffffffffffffffffffffffffffffff161415611280576000809054906101000a900473ffffffffffffffffffffffffffffffffffffffff16600260006101000a81548173ffffffffffffffffffffffffffffffffffffffff021916908373ffffffffffffffffffffffffffffffffffffffff160217905550611342565b600160009054906101000a900473ffffffffffffffffffffffffffffffffffffffff1673ffffffffffffffffffffffffffffffffffffffff166112c16126ee565b73ffffffffffffffffffffffffffffffffffffffff16141561134157600160009054906101000a900473ffffffffffffffffffffffffffffffffffffffff16600260006101000a81548173ffffffffffffffffffffffffffffffffffffffff021916908373ffffffffffffffffffffffffffffffffffffffff1602179055505b5b7f95975a5cac9ad4b5953c1419a5f954acbb5ca210ae91a6f3e365cdd108e81740600260009054906101000a900473ffffffffffffffffffffffffffffffffffffffff166040516113939190613338565b60405180910390a1565b6113a5612ccd565b6006600380602002604051908101604052809291906000905b828210156114a957838260030201600380602002604051908101604052809291906000905b82821015611496578382018054600181600116156101000203166002900480601f0160208091040260200160405190810160405280929190818152602001828054600181600116156101000203166002900480156114825780601f1061145757610100808354040283529160200191611482565b820191906000526020600020905b81548152906001019060200180831161146557829003601f168201915b5050505050815260200190600101906113e3565b50505050815260200190600101906113be565b50505050905090565b600160009054906101000a900473ffffffffffffffffffffffffffffffffffffffff1681565b6006826003811015156114e757fe5b60030201816003811015156114f857fe5b01600091509150508054600181600116156101000203166002900480601f0160208091040260200160405190810160405280929190818152602001828054600181600116156101000203166002900480156115945780601f1061156957610100808354040283529160200191611594565b820191906000526020600020905b81548152906001019060200180831161157757829003601f168201915b505050505081565b600080600080915091505b600560009054906101000a900460ff1660ff168260ff1610156117a157600f6000600260009054906101000a900473ffffffffffffffffffffffffffffffffffffffff1673ffffffffffffffffffffffffffffffffffffffff1673ffffffffffffffffffffffffffffffffffffffff16815260200190815260200160002060405160200180828054600181600116156101000203166002900480156116835780601f10611661576101008083540402835291820191611683565b820191906000526020600020905b81548152906001019060200180831161166f575b50509150506040516020818303038152906040528051906020012060068360ff166003811015156116b057fe5b600302018460ff166003811015156116c457fe5b0160405160200180828054600181600116156101000203166002900480156117235780601f10611701576101008083540402835291820191611723565b820191906000526020600020905b81548152906001019060200180831161170f575b505091505060405160208183030381529060405280519060200120141561178f57808060010191505060038160ff16141561178a57611783600260009054906101000a900473ffffffffffffffffffffffffffffffffffffffff1661278f565b50506124d4565b611794565b6117a1565b81806001019250506115a7565b5050600080600080915091505b600560009054906101000a900460ff1660ff168260ff1610156119a857600f6000600260009054906101000a900473ffffffffffffffffffffffffffffffffffffffff1673ffffffffffffffffffffffffffffffffffffffff1673ffffffffffffffffffffffffffffffffffffffff168152602001908152602001600020604051602001808280546001816001161561010002031660029004801561188a5780601f1061186857610100808354040283529182019161188a565b820191906000526020600020905b815481529060010190602001808311611876575b50509150506040516020818303038152906040528051906020012060068560ff166003811015156118b757fe5b600302018360ff166003811015156118cb57fe5b01604051602001808280546001816001161561010002031660029004801561192a5780601f1061190857610100808354040283529182019161192a565b820191906000526020600020905b815481529060010190602001808311611916575b505091505060405160208183030381529060405280519060200120141561199657808060010191505060038160ff1614156119915761198a600260009054906101000a900473ffffffffffffffffffffffffffffffffffffffff1661278f565b50506124d4565b61199b565b6119a8565b81806001019250506117ae565b5050600f6000600260009054906101000a900473ffffffffffffffffffffffffffffffffffffffff1673ffffffffffffffffffffffffffffffffffffffff1673ffffffffffffffffffffffffffffffffffffffff1681526020019081526020016000206040516020018082805460018160011615610100020316600290048015611a695780601f10611a47576101008083540402835291820191611a69565b820191906000526020600020905b815481529060010190602001808311611a55575b50509150506040516020818303038152906040528051906020012060066000600381101515611a9457fe5b600302016001600381101515611aa657fe5b016040516020018082805460018160011615610100020316600290048015611b055780601f10611ae3576101008083540402835291820191611b05565b820191906000526020600020905b815481529060010190602001808311611af1575b50509150506040516020818303038152906040528051906020012014158015611ca25750600f6000600260009054906101000a900473ffffffffffffffffffffffffffffffffffffffff1673ffffffffffffffffffffffffffffffffffffffff1673ffffffffffffffffffffffffffffffffffffffff1681526020019081526020016000206040516020018082805460018160011615610100020316600290048015611be85780601f10611bc6576101008083540402835291820191611be8565b820191906000526020600020905b815481529060010190602001808311611bd4575b50509150506040516020818303038152906040528051906020012060066001600381101515611c1357fe5b600302016000600381101515611c2557fe5b016040516020018082805460018160011615610100020316600290048015611c845780601f10611c62576101008083540402835291820191611c84565b820191906000526020600020905b815481529060010190602001808311611c70575b50509150506040516020818303038152906040528051906020012014155b8015611e225750600f6000600260009054906101000a900473ffffffffffffffffffffffffffffffffffffffff1673ffffffffffffffffffffffffffffffffffffffff1673ffffffffffffffffffffffffffffffffffffffff1681526020019081526020016000206040516020018082805460018160011615610100020316600290048015611d685780601f10611d46576101008083540402835291820191611d68565b820191906000526020600020905b815481529060010190602001808311611d54575b50509150506040516020818303038152906040528051906020012060066001600381101515611d9357fe5b600302016002600381101515611da557fe5b016040516020018082805460018160011615610100020316600290048015611e045780601f10611de2576101008083540402835291820191611e04565b820191906000526020600020905b815481529060010190602001808311611df0575b50509150506040516020818303038152906040528051906020012014155b8015611fa25750600f6000600260009054906101000a900473ffffffffffffffffffffffffffffffffffffffff1673ffffffffffffffffffffffffffffffffffffffff1673ffffffffffffffffffffffffffffffffffffffff1681526020019081526020016000206040516020018082805460018160011615610100020316600290048015611ee85780601f10611ec6576101008083540402835291820191611ee8565b820191906000526020600020905b815481529060010190602001808311611ed4575b50509150506040516020818303038152906040528051906020012060066002600381101515611f1357fe5b600302016001600381101515611f2557fe5b016040516020018082805460018160011615610100020316600290048015611f845780601f10611f62576101008083540402835291820191611f84565b820191906000526020600020905b815481529060010190602001808311611f70575b50509150506040516020818303038152906040528051906020012014155b156123ca57600080600080915091505b600560009054906101000a900460ff1660ff168260ff1610156121ac57600f6000600260009054906101000a900473ffffffffffffffffffffffffffffffffffffffff1673ffffffffffffffffffffffffffffffffffffffff1673ffffffffffffffffffffffffffffffffffffffff168152602001908152602001600020604051602001808280546001816001161561010002031660029004801561208e5780601f1061206c57610100808354040283529182019161208e565b820191906000526020600020905b81548152906001019060200180831161207a575b50509150506040516020818303038152906040528051906020012060068360ff166003811015156120bb57fe5b600302018360ff166003811015156120cf57fe5b01604051602001808280546001816001161561010002031660029004801561212e5780601f1061210c57610100808354040283529182019161212e565b820191906000526020600020905b81548152906001019060200180831161211a575b505091505060405160208183030381529060405280519060200120141561219a57808060010191505060038160ff1614156121955761218e600260009054906101000a900473ffffffffffffffffffffffffffffffffffffffff1661278f565b50506124d4565b61219f565b6121ac565b8180600101925050611fb2565b5050600080600080915091505b600560009054906101000a900460ff1660ff168260ff1610156123c757600f6000600260009054906101000a900473ffffffffffffffffffffffffffffffffffffffff1673ffffffffffffffffffffffffffffffffffffffff1673ffffffffffffffffffffffffffffffffffffffff16815260200190815260200160002060405160200180828054600181600116156101000203166002900480156122955780601f10612273576101008083540402835291820191612295565b820191906000526020600020905b815481529060010190602001808311612281575b50509150506040516020818303038152906040528051906020012060068360ff166003811015156122c257fe5b60030201600184600560009054906101000a900460ff16030360ff166003811015156122ea57fe5b0160405160200180828054600181600116156101000203166002900480156123495780601f10612327576101008083540402835291820191612349565b820191906000526020600020905b815481529060010190602001808311612335575b50509150506040516020818303038152906040528051906020012014156123b557808060010191505060038160ff1614156123b0576123a9600260009054906101000a900473ffffffffffffffffffffffffffffffffffffffff1661278f565b50506124d4565b6123ba565b6123c7565b81806001019250506121b9565b50505b6002600560009054906101000a900460ff1660ff160a60ff1660106000600160009054906101000a900473ffffffffffffffffffffffffffffffffffffffff1673ffffffffffffffffffffffffffffffffffffffff1673ffffffffffffffffffffffffffffffffffffffff16815260200190815260200160002060009054906101000a900460ff16601060008060009054906101000a900473ffffffffffffffffffffffffffffffffffffffff1673ffffffffffffffffffffffffffffffffffffffff1673ffffffffffffffffffffffffffffffffffffffff16815260200190815260200160002060009054906101000a900460ff160160ff1614156124d3576124d26129ee565b5b5b5050565b6000809054906101000a900473ffffffffffffffffffffffffffffffffffffffff1673ffffffffffffffffffffffffffffffffffffffff16600260009054906101000a900473ffffffffffffffffffffffffffffffffffffffff1673ffffffffffffffffffffffffffffffffffffffff1614156125b757600160009054906101000a900473ffffffffffffffffffffffffffffffffffffffff16600260006101000a81548173ffffffffffffffffffffffffffffffffffffffff021916908373ffffffffffffffffffffffffffffffffffffffff160217905550612693565b600160009054906101000a900473ffffffffffffffffffffffffffffffffffffffff1673ffffffffffffffffffffffffffffffffffffffff16600260009054906101000a900473ffffffffffffffffffffffffffffffffffffffff1673ffffffffffffffffffffffffffffffffffffffff161415612692576000809054906101000a900473ffffffffffffffffffffffffffffffffffffffff16600260006101000a81548173ffffffffffffffffffffffffffffffffffffffff021916908373ffffffffffffffffffffffffffffffffffffffff1602179055505b5b7f95975a5cac9ad4b5953c1419a5f954acbb5ca210ae91a6f3e365cdd108e81740600260009054906101000a900473ffffffffffffffffffffffffffffffffffffffff166040516126e49190613338565b60405180910390a1565b600080600242436040516020018083815260200182815260200192505050604051602081830303815290604052805190602001206001900481151561272f57fe5b0690506000811415612765576000809054906101000a900473ffffffffffffffffffffffffffffffffffffffff1691505061278c565b600160009054906101000a900473ffffffffffffffffffffffffffffffffffffffff169150505b90565b6000600360146101000a81548160ff02191690831515021790555080600360006101000a81548173ffffffffffffffffffffffffffffffffffffffff021916908373ffffffffffffffffffffffffffffffffffffffff1602179055506000809054906101000a900473ffffffffffffffffffffffffffffffffffffffff1673ffffffffffffffffffffffffffffffffffffffff168173ffffffffffffffffffffffffffffffffffffffff161415612891576040805190810160405280600b81526020017f686f7374566963746f72790000000000000000000000000000000000000000008152506004908051906020019061288b929190612bd2565b506128de565b6040805190810160405280600c81526020017f6775657374566963746f72790000000000000000000000000000000000000000815250600490805190602001906128dc929190612bd2565b505b600260006101000a81549073ffffffffffffffffffffffffffffffffffffffff02191690557f8faeeac76a6e18b7d45e0ec2ae51d949cc784f877b0c55bbc21157f141d61cc86004826040516129359291906133f6565b60405180910390a17f6ae495f483891de86c9e2a648b5510f7db2f2dfc77617fedffb8de30765735cb813073ffffffffffffffffffffffffffffffffffffffff163160405161298592919061336e565b60405180910390a18073ffffffffffffffffffffffffffffffffffffffff166108fc3073ffffffffffffffffffffffffffffffffffffffff16319081150290604051600060405180830381858888f193505050501580156129ea573d6000803e3d6000fd5b5050565b6000600360146101000a81548160ff0219169083151502179055506040805190810160405280600381526020017f746965000000000000000000000000000000000000000000000000000000000081525060049080519060200190612a54929190612bd2565b50600260006101000a81549073ffffffffffffffffffffffffffffffffffffffff02191690557f8faeeac76a6e18b7d45e0ec2ae51d949cc784f877b0c55bbc21157f141d61cc86004600260009054906101000a900473ffffffffffffffffffffffffffffffffffffffff16604051612ace9291906133f6565b60405180910390a1600060023073ffffffffffffffffffffffffffffffffffffffff1631811515612afb57fe5b0490506000809054906101000a900473ffffffffffffffffffffffffffffffffffffffff1673ffffffffffffffffffffffffffffffffffffffff166108fc829081150290604051600060405180830381858888f19350505050158015612b65573d6000803e3d6000fd5b50600160009054906101000a900473ffffffffffffffffffffffffffffffffffffffff1673ffffffffffffffffffffffffffffffffffffffff166108fc829081150290604051600060405180830381858888f19350505050158015612bce573d6000803e3d6000fd5b5050565b828054600181600116156101000203166002900490600052602060002090601f016020900481019282601f10612c1357805160ff1916838001178555612c41565b82800160010185558215612c41579182015b82811115612c40578251825591602001919060010190612c25565b5b509050612c4e9190612cfc565b5090565b50805460018160011615610100020316600290046000825580601f10612c785750612c97565b601f016020900490600052602060002090810190612c969190612cfc565b5b50565b5060008181612ca99190612d21565b5060030160008181612cbb9190612d21565b506003016000612ccb9190612d21565b565b610120604051908101604052806003905b612ce6612d54565b815260200190600190039081612cde5790505090565b612d1e91905b80821115612d1a576000816000905550600101612d02565b5090565b90565b5060008181612d309190612c52565b5060010160008181612d429190612c52565b506001016000612d529190612c52565b565b6060604051908101604052806003905b6060815260200190600190039081612d645790505090565b6000612d888235613664565b905092915050565b6000612d9c8235613676565b905092915050565b6000612db08235613680565b905092915050565b600060208284031215612dca57600080fd5b6000612dd884828501612d7c565b91505092915050565b60008060408385031215612df457600080fd5b6000612e0285828601612d90565b9250506020612e1385828601612d90565b9150509250929050565b60008060408385031215612e3057600080fd5b6000612e3e85828601612da4565b9250506020612e4f85828601612da4565b9150509250929050565b612e628161368d565b82525050565b612e718161360f565b82525050565b612e80816135fd565b82525050565b6000612e91826135c2565b83602082028501612ea18561359c565b60005b84811015612eda578383038852612ebc838351612eeb565b9250612ec7826135e3565b9150602088019750600181019050612ea4565b508196508694505050505092915050565b6000612ef6826135cd565b83602082028501612f06856135a6565b60005b84811015612f3f578383038852612f21838351612f5f565b9250612f2c826135f0565b9150602088019750600181019050612f09565b508196508694505050505092915050565b612f5981613621565b82525050565b6000612f6a826135d8565b808452612f7e8160208601602086016136c3565b612f87816136f6565b602085010191505092915050565b600081546001811660008114612fb25760018114612fd257613013565b607f600283041680865260ff198316602087015260408601935050613013565b60028204808652602086019550612fe8856135b0565b60005b8281101561300a57815481890152600182019150602081019050612feb565b80880195505050505b505092915050565b6000601382527f69742773206e6f7420796f7572207475726e21000000000000000000000000006020830152604082019050919050565b6000602d82527f67616d654a6f696e6572206d7573742073656e642067616d65436f737420746f60208301527f2074686520636f6e7472616374000000000000000000000000000000000000006040830152606082019050919050565b6000602282527f6f6e6c792063726561746f72206861732074686520726573746172742072696760208301527f68740000000000000000000000000000000000000000000000000000000000006040830152606082019050919050565b6000602b82527f72657374617274206d7573742073656e642067616d65436f737420746f20746860208301527f6520636f6e7472616374210000000000000000000000000000000000000000006040830152606082019050919050565b6000602582527f4669656c64206e6f7420656d7074792c20796f752063616e6e6f74207365742060208301527f68657265210000000000000000000000000000000000000000000000000000006040830152606082019050919050565b6000601482527f676f206265796f6e64207468652073636f7065210000000000000000000000006020830152604082019050919050565b6000601982527f6775657374506c6179657220616c7265616479206578697374000000000000006020830152604082019050919050565b6000602b82527f796f752063616e206f6e6c79207265737461727420616674657220746865206760208301527f616d65206973206f7665720000000000000000000000000000000000000000006040830152606082019050919050565b6000602082527f67616d6543726561746f722063616e6e6f74206a6f696e207468652067616d656020830152604082019050919050565b6000601882527f7468652067616d65206973206e6f742072756e6e696e672100000000000000006020830152604082019050919050565b6133088161364d565b82525050565b61331781613657565b82525050565b60006020820190506133326000830184612e77565b92915050565b600060208201905061334d6000830184612e59565b92915050565b60006020820190506133686000830184612e68565b92915050565b60006040820190506133836000830185612e59565b61339060208301846132ff565b9392505050565b600060208201905081810360008301526133b18184612e86565b905092915050565b60006020820190506133ce6000830184612f50565b92915050565b600060208201905081810360008301526133ee8184612f5f565b905092915050565b600060408201905081810360008301526134108185612f95565b905061341f6020830184612e59565b9392505050565b6000602082019050818103600083015261343f8161301b565b9050919050565b6000602082019050818103600083015261345f81613052565b9050919050565b6000602082019050818103600083015261347f816130af565b9050919050565b6000602082019050818103600083015261349f8161310c565b9050919050565b600060208201905081810360008301526134bf81613169565b9050919050565b600060208201905081810360008301526134df816131c6565b9050919050565b600060208201905081810360008301526134ff816131fd565b9050919050565b6000602082019050818103600083015261351f81613234565b9050919050565b6000602082019050818103600083015261353f81613291565b9050919050565b6000602082019050818103600083015261355f816132c8565b9050919050565b600060208201905061357b60008301846132ff565b92915050565b6000602082019050613596600083018461330e565b92915050565b6000819050919050565b6000819050919050565b60008160005260206000209050919050565b600060039050919050565b600060039050919050565b600081519050919050565b6000602082019050919050565b6000602082019050919050565b60006136088261362d565b9050919050565b600061361a8261362d565b9050919050565b60008115159050919050565b600073ffffffffffffffffffffffffffffffffffffffff82169050919050565b6000819050919050565b600060ff82169050919050565b600061366f8261362d565b9050919050565b6000819050919050565b600060ff82169050919050565b60006136988261369f565b9050919050565b60006136aa826136b1565b9050919050565b60006136bc8261362d565b9050919050565b60005b838110156136e15780820151818401526020810190506136c6565b838111156136f0576000848401525b50505050565b6000601f19601f830116905091905056fea265627a7a723058209dd036dff83ccd5a9810cde8ba7849d69914be2f40f98ccba91c84e2630e748f6c6578706572696d656e74616cf50037",
  "source": "pragma solidity >=0.5.0 <=0.6.0;\npragma experimental ABIEncoderV2;\n\n//import \"./Console.sol\";\n\ncontract TicTacToe {\n\n    uint constant public gameCost = 0.1 ether;\n\n    address payable public hostPlayer;\n    address payable public guestPlayer;\n    address payable public activePlayer;\n    address public victorPlayer;\n\n    bool public gameRunning;\n\n\n    string public gameResult;\n\n    uint8 public chessboardSize = 3;\n    string[3][3] public chessboard;\n\n    //\"O\"(host) or \"X\"(guest)\n    mapping(address => string) public playerChess;\n    mapping(address => uint8) public movesCount;\n\n    event PlayerJoined(address playerAddr);\n    event ActivePlayer(address activePlayerAddr);\n    event GameFinished(string gameResult, address victor);\n    event VictoryAward(address receiver, uint amount);\n\n    constructor() public payable{\n        require(msg.value == gameCost, \"creator must send gameCost to the contract!\");\n        hostPlayer = msg.sender;\n        gameRunning = false;\n        playerChess[hostPlayer] = \"O\";\n    }\n\n    function getWholeBoard() public view returns (string[3][3] memory){\n\n        return chessboard;\n    }\n\n    function joinGame() public payable {\n        require(msg.sender != hostPlayer, \"gameCreator cannot join the game\");\n        require(guestPlayer == address(0), \"guestPlayer already exist\");\n        require(msg.value == gameCost, \"gameJoiner must send gameCost to the contract\");\n        guestPlayer = msg.sender;\n        emit PlayerJoined(guestPlayer);\n        //\n        gameRunning = true;\n        playerChess[guestPlayer] = \"X\";\n        if (randomStart() == hostPlayer) {\n            activePlayer = hostPlayer;\n        } else if (randomStart() == guestPlayer) {\n            activePlayer = guestPlayer;\n        }\n        emit ActivePlayer(activePlayer);\n    }\n\n    //,??\n    //activeplayer \n    function randomStart() private view returns (address) {\n        uint rand = uint(keccak256(abi.encodePacked(now, block.number))) % 2;\n        if (rand == 0) {\n            return hostPlayer;\n        } else {\n            return guestPlayer;\n        }\n    }\n\n    //gameCost\n    function restartGame() public payable {\n        require(msg.sender == hostPlayer, \"only creator has the restart right\");\n        //guestPlayer creator\n        require(!gameRunning && guestPlayer != address(0), \"you can only restart after the game is over\");\n        require(msg.value == gameCost, \"restart must send gameCost to the contract!\");\n\n        //,guestPlayer\n        delete movesCount[hostPlayer];\n        delete movesCount[guestPlayer];\n        //,guestPlayer\n        delete playerChess[guestPlayer];\n\n        //guestPlayer,hostPlayer\n        delete guestPlayer;\n        //(activePlayer=address(0);)\n        delete activePlayer;\n        //\n        delete chessboard;\n        //\n        delete victorPlayer;\n        delete gameResult;\n    }\n\n    function getBonuspool() public view returns (uint){\n        return address(this).balance;\n    }\n\n    function setChess(uint8 row, uint8 column) public {\n        require(gameRunning, \"the game is not running!\");\n        require(msg.sender == activePlayer, \"it's not your turn!\");\n        require(row < 3 && column < 3, \"go beyond the scope!\");\n        require(keccak256(abi.encodePacked(chessboard[row][column])) == keccak256(abi.encodePacked(\"\")), \"Field not empty, you cannot set here!\");\n\n        if (msg.sender == hostPlayer) {\n            //host\n            chessboard[row][column] = \"O\";\n            movesCount[hostPlayer]++;\n        } else {\n            //guest\n            chessboard[row][column] = \"X\";\n            movesCount[guestPlayer]++;\n        }\n\n        //5\n        if ((movesCount[hostPlayer] + movesCount[guestPlayer]) >= (chessboardSize * 2 - 1)) {\n            //Console.log(\"settle\", now);\n            settleStage(row, column);\n        }\n\n        if (gameRunning) {\n            takeTurnStage();\n        }\n    }\n\n    //ether\n    function setVictor(address payable player) private {\n        gameRunning = false;\n\n        victorPlayer = player;\n        if (player == hostPlayer) {\n            gameResult = \"hostVictory\";\n        } else {\n            gameResult = \"guestVictory\";\n        }\n        delete activePlayer;\n        emit GameFinished(gameResult, player);\n        //\n        emit VictoryAward(player,address(this).balance);\n        player.transfer(address(this).balance);\n    }\n\n    // setTieether \n    //\n    function setTie() private {\n        gameRunning = false;\n        gameResult = \"tie\";\n        delete activePlayer;\n        emit GameFinished(gameResult, activePlayer);\n        //\n        uint tieAward = address(this).balance / 2;\n        hostPlayer.transfer(tieAward);\n        guestPlayer.transfer(tieAward);\n    }\n\n    //\n    function settleStage(uint8 player_row, uint8 player_column) private {\n        // 3\n        //Console.log(\"firstJudge\", now);\n        //uint8 row_count = 0;\n        for ((uint8 row, uint8 row_count) = (0,0); row < chessboardSize; row++) {\n            if (keccak256(abi.encodePacked(chessboard[row][player_column])) == keccak256(abi.encodePacked(playerChess[activePlayer]))) {\n                row_count++;\n                if (row_count == 3) {\n                    //activePlayer is winner\n                    setVictor(activePlayer);\n                    return;\n                }\n            } else {\n                break;\n            }\n        }\n\n        //Console.log(\"secondJudge\", now);\n        //3\n        //uint8 column_count = 0;\n        for ((uint8 column, uint8 column_count) = (0,0); column < chessboardSize; column++) {\n            if (keccak256(abi.encodePacked(chessboard[player_row][column])) == keccak256(abi.encodePacked(playerChess[activePlayer]))) {\n                column_count++;\n                if (column_count == 3) {\n                    //activePlayer is winner\n                    setVictor(activePlayer);\n                    return;\n                }\n            } else {\n                break;\n            }\n        }\n\n        //Console.log(\"thirdJudge\", now);\n        // \n        if (keccak256(abi.encodePacked(chessboard[0][1])) != keccak256(abi.encodePacked(playerChess[activePlayer])) &&\n        keccak256(abi.encodePacked(chessboard[1][0])) != keccak256(abi.encodePacked(playerChess[activePlayer])) &&\n        keccak256(abi.encodePacked(chessboard[1][2])) != keccak256(abi.encodePacked(playerChess[activePlayer])) &&\n        keccak256(abi.encodePacked(chessboard[2][1])) != keccak256(abi.encodePacked(playerChess[activePlayer]))) {\n\n            //uint8 diagonalCount = 0;\n            for ((uint8 i, uint8 diagonalCount) = (0,0); i < chessboardSize; i++) {\n                if (keccak256(abi.encodePacked(chessboard[i][i])) == keccak256(abi.encodePacked(playerChess[activePlayer]))) {\n                    diagonalCount++;\n                    if (diagonalCount == 3) {\n                        //activePlayer is winner\n                        setVictor(activePlayer);\n                        return;\n                    }\n                } else {\n                    break;\n                }\n            }\n\n\n            //uint8 anti_diagonalCount = 0;\n            for ((uint8 j, uint8 anti_diagonalCount) = (0,0); j < chessboardSize; j++) {\n                if (keccak256(abi.encodePacked(chessboard[j][chessboardSize - j - 1])) == keccak256(abi.encodePacked(playerChess[activePlayer]))) {\n                    anti_diagonalCount++;\n                    if (anti_diagonalCount == 3) {\n                        //activePlayer is winner\n                        setVictor(activePlayer);\n                        return;\n                    }\n                } else {\n                    break;\n                }\n            }\n        }\n\n        //\n        if ((movesCount[hostPlayer] + movesCount[guestPlayer]) == (chessboardSize ** 2)) {\n            //tie\n            setTie();\n        }\n    }\n\n    //\n    function takeTurnStage() private {\n        if (activePlayer == hostPlayer) {\n            activePlayer = guestPlayer;\n        } else if (activePlayer == guestPlayer) {\n            activePlayer = hostPlayer;\n        }\n        emit ActivePlayer(activePlayer);\n    }\n}\n\n",
  "sourcePath": "/Users/superman285/Programmer/WebProject/AdvancedJS/MyFavorProject/TicTacToe/contracts/TicTacToe.sol",
  "compiler": {
    "name": "solc",
    "version": "0.5.0+commit.1d4f565a.Emscripten.clang"
  },
  "schemaVersion": "3.0.5",
  "updatedAt": "2019-03-24T04:19:43.446Z",
  "devdoc": {
    "methods": {}
  },
  "userdoc": {
    "methods": {}
  }
}